{
  "contracts/SafeBatchCreate.sol": {
    "SafeBatchCreate": {
      "abi": [
        {
          "constant": false,
          "inputs": [
            {
              "name": "owner",
              "type": "address"
            }
          ],
          "name": "batchCreate",
          "outputs": [],
          "payable": false,
          "stateMutability": "nonpayable",
          "type": "function"
        },
        {
          "anonymous": false,
          "inputs": [
            {
              "indexed": false,
              "name": "safe",
              "type": "address"
            },
            {
              "indexed": false,
              "name": "owner",
              "type": "address"
            }
          ],
          "name": "safeCreate",
          "type": "event"
        }
      ],
      "evm": {
        "bytecode": {
          "linkReferences": {},
          "object": "608060405234801561001057600080fd5b5060fb8061001f6000396000f3fe6080604052348015600f57600080fd5b50600436106044577c0100000000000000000000000000000000000000000000000000000000600035046398217d2c81146049575b600080fd5b607960048036036020811015605d57600080fd5b503573ffffffffffffffffffffffffffffffffffffffff16607b565b005b604080516000815273ffffffffffffffffffffffffffffffffffffffff8316602082015281517f3976bf2aa4e13cadccca621650482e51213672fd3d1634f4ad087534cfdd55b1929181900390910190a15056fea165627a7a723058205ce1ab38d0b4d2376c3288840c14968892bbf925791d64ac5c98360a1423ba170029",
          "opcodes": "PUSH1 0x80 PUSH1 0x40 MSTORE CALLVALUE DUP1 ISZERO PUSH2 0x10 JUMPI PUSH1 0x0 DUP1 REVERT JUMPDEST POP PUSH1 0xFB DUP1 PUSH2 0x1F PUSH1 0x0 CODECOPY PUSH1 0x0 RETURN INVALID PUSH1 0x80 PUSH1 0x40 MSTORE CALLVALUE DUP1 ISZERO PUSH1 0xF JUMPI PUSH1 0x0 DUP1 REVERT JUMPDEST POP PUSH1 0x4 CALLDATASIZE LT PUSH1 0x44 JUMPI PUSH29 0x100000000000000000000000000000000000000000000000000000000 PUSH1 0x0 CALLDATALOAD DIV PUSH4 0x98217D2C DUP2 EQ PUSH1 0x49 JUMPI JUMPDEST PUSH1 0x0 DUP1 REVERT JUMPDEST PUSH1 0x79 PUSH1 0x4 DUP1 CALLDATASIZE SUB PUSH1 0x20 DUP2 LT ISZERO PUSH1 0x5D JUMPI PUSH1 0x0 DUP1 REVERT JUMPDEST POP CALLDATALOAD PUSH20 0xFFFFFFFFFFFFFFFFFFFFFFFFFFFFFFFFFFFFFFFF AND PUSH1 0x7B JUMP JUMPDEST STOP JUMPDEST PUSH1 0x40 DUP1 MLOAD PUSH1 0x0 DUP2 MSTORE PUSH20 0xFFFFFFFFFFFFFFFFFFFFFFFFFFFFFFFFFFFFFFFF DUP4 AND PUSH1 0x20 DUP3 ADD MSTORE DUP2 MLOAD PUSH32 0x3976BF2AA4E13CADCCCA621650482E51213672FD3D1634F4AD087534CFDD55B1 SWAP3 SWAP2 DUP2 SWAP1 SUB SWAP1 SWAP2 ADD SWAP1 LOG1 POP JUMP INVALID LOG1 PUSH6 0x627A7A723058 KECCAK256 0x5c 0xe1 0xab CODESIZE 0xd0 0xb4 0xd2 CALLDATACOPY PUSH13 0x3288840C14968892BBF925791D PUSH5 0xAC5C98360A EQ 0x23 0xba OR STOP 0x29 "
        },
        "methodIdentifiers": {
          "batchCreate(address)": "98217d2c"
        }
      }
    }
  }
}